{
  "contractName": "REToken",
  "abi": [
    {
      "inputs": [],
      "stateMutability": "nonpayable",
      "type": "constructor"
    },
    {
      "anonymous": false,
      "inputs": [
        {
          "indexed": true,
          "internalType": "address",
          "name": "owner",
          "type": "address"
        },
        {
          "indexed": true,
          "internalType": "address",
          "name": "approved",
          "type": "address"
        },
        {
          "indexed": true,
          "internalType": "uint256",
          "name": "tokenId",
          "type": "uint256"
        }
      ],
      "name": "Approval",
      "type": "event"
    },
    {
      "anonymous": false,
      "inputs": [
        {
          "indexed": true,
          "internalType": "address",
          "name": "owner",
          "type": "address"
        },
        {
          "indexed": true,
          "internalType": "address",
          "name": "operator",
          "type": "address"
        },
        {
          "indexed": false,
          "internalType": "bool",
          "name": "approved",
          "type": "bool"
        }
      ],
      "name": "ApprovalForAll",
      "type": "event"
    },
    {
      "anonymous": false,
      "inputs": [
        {
          "indexed": true,
          "internalType": "address",
          "name": "from",
          "type": "address"
        },
        {
          "indexed": true,
          "internalType": "address",
          "name": "to",
          "type": "address"
        },
        {
          "indexed": true,
          "internalType": "uint256",
          "name": "tokenId",
          "type": "uint256"
        }
      ],
      "name": "Transfer",
      "type": "event"
    },
    {
      "inputs": [
        {
          "internalType": "address",
          "name": "to",
          "type": "address"
        },
        {
          "internalType": "uint256",
          "name": "tokenId",
          "type": "uint256"
        }
      ],
      "name": "approve",
      "outputs": [],
      "stateMutability": "nonpayable",
      "type": "function"
    },
    {
      "inputs": [
        {
          "internalType": "address",
          "name": "owner",
          "type": "address"
        }
      ],
      "name": "balanceOf",
      "outputs": [
        {
          "internalType": "uint256",
          "name": "",
          "type": "uint256"
        }
      ],
      "stateMutability": "view",
      "type": "function"
    },
    {
      "inputs": [
        {
          "internalType": "uint256",
          "name": "tokenId",
          "type": "uint256"
        }
      ],
      "name": "getApproved",
      "outputs": [
        {
          "internalType": "address",
          "name": "",
          "type": "address"
        }
      ],
      "stateMutability": "view",
      "type": "function"
    },
    {
      "inputs": [
        {
          "internalType": "address",
          "name": "owner",
          "type": "address"
        },
        {
          "internalType": "address",
          "name": "operator",
          "type": "address"
        }
      ],
      "name": "isApprovedForAll",
      "outputs": [
        {
          "internalType": "bool",
          "name": "",
          "type": "bool"
        }
      ],
      "stateMutability": "view",
      "type": "function"
    },
    {
      "inputs": [],
      "name": "name",
      "outputs": [
        {
          "internalType": "string",
          "name": "",
          "type": "string"
        }
      ],
      "stateMutability": "view",
      "type": "function"
    },
    {
      "inputs": [
        {
          "internalType": "uint256",
          "name": "tokenId",
          "type": "uint256"
        }
      ],
      "name": "ownerOf",
      "outputs": [
        {
          "internalType": "address",
          "name": "",
          "type": "address"
        }
      ],
      "stateMutability": "view",
      "type": "function"
    },
    {
      "inputs": [
        {
          "internalType": "address",
          "name": "from",
          "type": "address"
        },
        {
          "internalType": "address",
          "name": "to",
          "type": "address"
        },
        {
          "internalType": "uint256",
          "name": "tokenId",
          "type": "uint256"
        }
      ],
      "name": "safeTransferFrom",
      "outputs": [],
      "stateMutability": "nonpayable",
      "type": "function"
    },
    {
      "inputs": [
        {
          "internalType": "address",
          "name": "from",
          "type": "address"
        },
        {
          "internalType": "address",
          "name": "to",
          "type": "address"
        },
        {
          "internalType": "uint256",
          "name": "tokenId",
          "type": "uint256"
        },
        {
          "internalType": "bytes",
          "name": "_data",
          "type": "bytes"
        }
      ],
      "name": "safeTransferFrom",
      "outputs": [],
      "stateMutability": "nonpayable",
      "type": "function"
    },
    {
      "inputs": [
        {
          "internalType": "address",
          "name": "operator",
          "type": "address"
        },
        {
          "internalType": "bool",
          "name": "approved",
          "type": "bool"
        }
      ],
      "name": "setApprovalForAll",
      "outputs": [],
      "stateMutability": "nonpayable",
      "type": "function"
    },
    {
      "inputs": [
        {
          "internalType": "bytes4",
          "name": "interfaceId",
          "type": "bytes4"
        }
      ],
      "name": "supportsInterface",
      "outputs": [
        {
          "internalType": "bool",
          "name": "",
          "type": "bool"
        }
      ],
      "stateMutability": "view",
      "type": "function"
    },
    {
      "inputs": [],
      "name": "symbol",
      "outputs": [
        {
          "internalType": "string",
          "name": "",
          "type": "string"
        }
      ],
      "stateMutability": "view",
      "type": "function"
    },
    {
      "inputs": [
        {
          "internalType": "uint256",
          "name": "tokenId",
          "type": "uint256"
        }
      ],
      "name": "tokenURI",
      "outputs": [
        {
          "internalType": "string",
          "name": "",
          "type": "string"
        }
      ],
      "stateMutability": "view",
      "type": "function"
    },
    {
      "inputs": [
        {
          "internalType": "address",
          "name": "from",
          "type": "address"
        },
        {
          "internalType": "address",
          "name": "to",
          "type": "address"
        },
        {
          "internalType": "uint256",
          "name": "tokenId",
          "type": "uint256"
        }
      ],
      "name": "transferFrom",
      "outputs": [],
      "stateMutability": "nonpayable",
      "type": "function"
    },
    {
      "inputs": [
        {
          "internalType": "address",
          "name": "recipient",
          "type": "address"
        },
        {
          "internalType": "string",
          "name": "hash",
          "type": "string"
        },
        {
          "internalType": "string",
          "name": "metadata",
          "type": "string"
        }
      ],
      "name": "awardItem",
      "outputs": [
        {
          "internalType": "uint256",
          "name": "",
          "type": "uint256"
        }
      ],
      "stateMutability": "nonpayable",
      "type": "function"
    }
  ],
  "bytecode": "0x60806040523480156200001157600080fd5b506040518060400160405280600f81526020017f5265616c457374617465546f6b656e00000000000000000000000000000000008152506040518060400160405280600381526020017f5245540000000000000000000000000000000000000000000000000000000000815250816000908051906020019062000096929190620000b8565b508060019080519060200190620000af929190620000b8565b505050620001cd565b828054620000c69062000168565b90600052602060002090601f016020900481019282620000ea576000855562000136565b82601f106200010557805160ff191683800117855562000136565b8280016001018555821562000136579182015b828111156200013557825182559160200191906001019062000118565b5b50905062000145919062000149565b5090565b5b80821115620001645760008160009055506001016200014a565b5090565b600060028204905060018216806200018157607f821691505b602082108114156200019857620001976200019e565b5b50919050565b7f4e487b7100000000000000000000000000000000000000000000000000000000600052602260045260246000fd5b61296480620001dd6000396000f3fe608060405234801561001057600080fd5b50600436106100ea5760003560e01c806370a082311161008c578063a22cb46511610066578063a22cb4651461026f578063b88d4fde1461028b578063c87b56dd146102a7578063e985e9c5146102d7576100ea565b806370a08231146101f15780638bfaf1011461022157806395d89b4114610251576100ea565b8063095ea7b3116100c8578063095ea7b31461016d57806323b872dd1461018957806342842e0e146101a55780636352211e146101c1576100ea565b806301ffc9a7146100ef57806306fdde031461011f578063081812fc1461013d575b600080fd5b61010960048036038101906101049190611b67565b610307565b60405161011691906122dc565b60405180910390f35b6101276103e9565b60405161013491906122f7565b60405180910390f35b61015760048036038101906101529190611bb9565b61047b565b6040516101649190612275565b60405180910390f35b61018760048036038101906101829190611b2b565b610500565b005b6101a3600480360381019061019e91906119a6565b610618565b005b6101bf60048036038101906101ba91906119a6565b610678565b005b6101db60048036038101906101d69190611bb9565b610698565b6040516101e89190612275565b60405180910390f35b61020b60048036038101906102069190611941565b61074a565b60405161021891906124f9565b60405180910390f35b61023b60048036038101906102369190611aac565b610802565b60405161024891906124f9565b60405180910390f35b6102596108af565b60405161026691906122f7565b60405180910390f35b61028960048036038101906102849190611a70565b610941565b005b6102a560048036038101906102a091906119f5565b610ac2565b005b6102c160048036038101906102bc9190611bb9565b610b24565b6040516102ce91906122f7565b60405180910390f35b6102f160048036038101906102ec919061196a565b610bcb565b6040516102fe91906122dc565b60405180910390f35b60007f80ac58cd000000000000000000000000000000000000000000000000000000007bffffffffffffffffffffffffffffffffffffffffffffffffffffffff1916827bffffffffffffffffffffffffffffffffffffffffffffffffffffffff191614806103d257507f5b5e139f000000000000000000000000000000000000000000000000000000007bffffffffffffffffffffffffffffffffffffffffffffffffffffffff1916827bffffffffffffffffffffffffffffffffffffffffffffffffffffffff1916145b806103e257506103e182610c5f565b5b9050919050565b6060600080546103f890612759565b80601f016020809104026020016040519081016040528092919081815260200182805461042490612759565b80156104715780601f1061044657610100808354040283529160200191610471565b820191906000526020600020905b81548152906001019060200180831161045457829003601f168201915b5050505050905090565b600061048682610cc9565b6104c5576040517f08c379a00000000000000000000000000000000000000000000000000000000081526004016104bc90612439565b60405180910390fd5b6004600083815260200190815260200160002060009054906101000a900473ffffffffffffffffffffffffffffffffffffffff169050919050565b600061050b82610698565b90508073ffffffffffffffffffffffffffffffffffffffff168373ffffffffffffffffffffffffffffffffffffffff16141561057c576040517f08c379a0000000000000000000000000000000000000000000000000000000008152600401610573906124b9565b60405180910390fd5b8073ffffffffffffffffffffffffffffffffffffffff1661059b610d35565b73ffffffffffffffffffffffffffffffffffffffff1614806105ca57506105c9816105c4610d35565b610bcb565b5b610609576040517f08c379a0000000000000000000000000000000000000000000000000000000008152600401610600906123b9565b60405180910390fd5b6106138383610d3d565b505050565b610629610623610d35565b82610df6565b610668576040517f08c379a000000000000000000000000000000000000000000000000000000000815260040161065f906124d9565b60405180910390fd5b610673838383610ed4565b505050565b61069383838360405180602001604052806000815250610ac2565b505050565b6000806002600084815260200190815260200160002060009054906101000a900473ffffffffffffffffffffffffffffffffffffffff169050600073ffffffffffffffffffffffffffffffffffffffff168173ffffffffffffffffffffffffffffffffffffffff161415610741576040517f08c379a0000000000000000000000000000000000000000000000000000000008152600401610738906123f9565b60405180910390fd5b80915050919050565b60008073ffffffffffffffffffffffffffffffffffffffff168273ffffffffffffffffffffffffffffffffffffffff1614156107bb576040517f08c379a00000000000000000000000000000000000000000000000000000000081526004016107b2906123d9565b60405180910390fd5b600360008373ffffffffffffffffffffffffffffffffffffffff1673ffffffffffffffffffffffffffffffffffffffff168152602001908152602001600020549050919050565b60006001600784604051610816919061223a565b908152602001604051809103902060009054906101000a900460ff1660ff16141561084057600080fd5b6001600784604051610852919061223a565b908152602001604051809103902060006101000a81548160ff021916908360ff1602179055506108826006611130565b600061088e6006611146565b905061089a8582611154565b6108a48184611322565b809150509392505050565b6060600180546108be90612759565b80601f01602080910402602001604051908101604052809291908181526020018280546108ea90612759565b80156109375780601f1061090c57610100808354040283529160200191610937565b820191906000526020600020905b81548152906001019060200180831161091a57829003601f168201915b5050505050905090565b610949610d35565b73ffffffffffffffffffffffffffffffffffffffff168273ffffffffffffffffffffffffffffffffffffffff1614156109b7576040517f08c379a00000000000000000000000000000000000000000000000000000000081526004016109ae90612379565b60405180910390fd5b80600560006109c4610d35565b73ffffffffffffffffffffffffffffffffffffffff1673ffffffffffffffffffffffffffffffffffffffff16815260200190815260200160002060008473ffffffffffffffffffffffffffffffffffffffff1673ffffffffffffffffffffffffffffffffffffffff16815260200190815260200160002060006101000a81548160ff0219169083151502179055508173ffffffffffffffffffffffffffffffffffffffff16610a71610d35565b73ffffffffffffffffffffffffffffffffffffffff167f17307eab39ab6107e8899845ad3d59bd9653f200f220920489ca2b5937696c3183604051610ab691906122dc565b60405180910390a35050565b610ad3610acd610d35565b83610df6565b610b12576040517f08c379a0000000000000000000000000000000000000000000000000000000008152600401610b09906124d9565b60405180910390fd5b610b1e84848484611396565b50505050565b6060610b2f82610cc9565b610b6e576040517f08c379a0000000000000000000000000000000000000000000000000000000008152600401610b6590612499565b60405180910390fd5b6000610b786113f2565b90506000815111610b985760405180602001604052806000815250610bc3565b80610ba284611409565b604051602001610bb3929190612251565b6040516020818303038152906040525b915050919050565b6000600560008473ffffffffffffffffffffffffffffffffffffffff1673ffffffffffffffffffffffffffffffffffffffff16815260200190815260200160002060008373ffffffffffffffffffffffffffffffffffffffff1673ffffffffffffffffffffffffffffffffffffffff16815260200190815260200160002060009054906101000a900460ff16905092915050565b60007f01ffc9a7000000000000000000000000000000000000000000000000000000007bffffffffffffffffffffffffffffffffffffffffffffffffffffffff1916827bffffffffffffffffffffffffffffffffffffffffffffffffffffffff1916149050919050565b60008073ffffffffffffffffffffffffffffffffffffffff166002600084815260200190815260200160002060009054906101000a900473ffffffffffffffffffffffffffffffffffffffff1673ffffffffffffffffffffffffffffffffffffffff1614159050919050565b600033905090565b816004600083815260200190815260200160002060006101000a81548173ffffffffffffffffffffffffffffffffffffffff021916908373ffffffffffffffffffffffffffffffffffffffff160217905550808273ffffffffffffffffffffffffffffffffffffffff16610db083610698565b73ffffffffffffffffffffffffffffffffffffffff167f8c5be1e5ebec7d5bd14f71427d1e84f3dd0314c0f7b2291e5b200ac8c7c3b92560405160405180910390a45050565b6000610e0182610cc9565b610e40576040517f08c379a0000000000000000000000000000000000000000000000000000000008152600401610e3790612399565b60405180910390fd5b6000610e4b83610698565b90508073ffffffffffffffffffffffffffffffffffffffff168473ffffffffffffffffffffffffffffffffffffffff161480610eba57508373ffffffffffffffffffffffffffffffffffffffff16610ea28461047b565b73ffffffffffffffffffffffffffffffffffffffff16145b80610ecb5750610eca8185610bcb565b5b91505092915050565b8273ffffffffffffffffffffffffffffffffffffffff16610ef482610698565b73ffffffffffffffffffffffffffffffffffffffff1614610f4a576040517f08c379a0000000000000000000000000000000000000000000000000000000008152600401610f4190612479565b60405180910390fd5b600073ffffffffffffffffffffffffffffffffffffffff168273ffffffffffffffffffffffffffffffffffffffff161415610fba576040517f08c379a0000000000000000000000000000000000000000000000000000000008152600401610fb190612359565b60405180910390fd5b610fc58383836115b6565b610fd0600082610d3d565b6001600360008573ffffffffffffffffffffffffffffffffffffffff1673ffffffffffffffffffffffffffffffffffffffff1681526020019081526020016000206000828254611020919061266f565b925050819055506001600360008473ffffffffffffffffffffffffffffffffffffffff1673ffffffffffffffffffffffffffffffffffffffff168152602001908152602001600020600082825461107791906125e8565b92505081905550816002600083815260200190815260200160002060006101000a81548173ffffffffffffffffffffffffffffffffffffffff021916908373ffffffffffffffffffffffffffffffffffffffff160217905550808273ffffffffffffffffffffffffffffffffffffffff168473ffffffffffffffffffffffffffffffffffffffff167fddf252ad1be2c89b69c2b068fc378daa952ba7f163c4a11628f55a4df523b3ef60405160405180910390a4505050565b6001816000016000828254019250508190555050565b600081600001549050919050565b600073ffffffffffffffffffffffffffffffffffffffff168273ffffffffffffffffffffffffffffffffffffffff1614156111c4576040517f08c379a00000000000000000000000000000000000000000000000000000000081526004016111bb90612419565b60405180910390fd5b6111cd81610cc9565b1561120d576040517f08c379a000000000000000000000000000000000000000000000000000000000815260040161120490612339565b60405180910390fd5b611219600083836115b6565b6001600360008473ffffffffffffffffffffffffffffffffffffffff1673ffffffffffffffffffffffffffffffffffffffff168152602001908152602001600020600082825461126991906125e8565b92505081905550816002600083815260200190815260200160002060006101000a81548173ffffffffffffffffffffffffffffffffffffffff021916908373ffffffffffffffffffffffffffffffffffffffff160217905550808273ffffffffffffffffffffffffffffffffffffffff16600073ffffffffffffffffffffffffffffffffffffffff167fddf252ad1be2c89b69c2b068fc378daa952ba7f163c4a11628f55a4df523b3ef60405160405180910390a45050565b61132b82610cc9565b61136a576040517f08c379a000000000000000000000000000000000000000000000000000000000815260040161136190612459565b60405180910390fd5b80600860008481526020019081526020016000209080519060200190611391929190611765565b505050565b6113a1848484610ed4565b6113ad848484846115bb565b6113ec576040517f08c379a00000000000000000000000000000000000000000000000000000000081526004016113e390612319565b60405180910390fd5b50505050565b606060405180602001604052806000815250905090565b60606000821415611451576040518060400160405280600181526020017f300000000000000000000000000000000000000000000000000000000000000081525090506115b1565b600082905060005b6000821461148357808061146c9061278b565b915050600a8261147c919061263e565b9150611459565b60008167ffffffffffffffff8111156114c5577f4e487b7100000000000000000000000000000000000000000000000000000000600052604160045260246000fd5b6040519080825280601f01601f1916602001820160405280156114f75781602001600182028036833780820191505090505b5090505b600085146115aa57600182611510919061266f565b9150600a8561151f91906127d4565b603061152b91906125e8565b60f81b818381518110611567577f4e487b7100000000000000000000000000000000000000000000000000000000600052603260045260246000fd5b60200101907effffffffffffffffffffffffffffffffffffffffffffffffffffffffffffff1916908160001a905350600a856115a3919061263e565b94506114fb565b8093505050505b919050565b505050565b60006115dc8473ffffffffffffffffffffffffffffffffffffffff16611752565b15611745578373ffffffffffffffffffffffffffffffffffffffff1663150b7a02611605610d35565b8786866040518563ffffffff1660e01b81526004016116279493929190612290565b602060405180830381600087803b15801561164157600080fd5b505af192505050801561167257506040513d601f19601f8201168201806040525081019061166f9190611b90565b60015b6116f5573d80600081146116a2576040519150601f19603f3d011682016040523d82523d6000602084013e6116a7565b606091505b506000815114156116ed576040517f08c379a00000000000000000000000000000000000000000000000000000000081526004016116e490612319565b60405180910390fd5b805181602001fd5b63150b7a0260e01b7bffffffffffffffffffffffffffffffffffffffffffffffffffffffff1916817bffffffffffffffffffffffffffffffffffffffffffffffffffffffff19161491505061174a565b600190505b949350505050565b600080823b905060008111915050919050565b82805461177190612759565b90600052602060002090601f01602090048101928261179357600085556117da565b82601f106117ac57805160ff19168380011785556117da565b828001600101855582156117da579182015b828111156117d95782518255916020019190600101906117be565b5b5090506117e791906117eb565b5090565b5b808211156118045760008160009055506001016117ec565b5090565b600061181b61181684612545565b612514565b90508281526020810184848401111561183357600080fd5b61183e848285612717565b509392505050565b600061185961185484612575565b612514565b90508281526020810184848401111561187157600080fd5b61187c848285612717565b509392505050565b600081359050611893816128d2565b92915050565b6000813590506118a8816128e9565b92915050565b6000813590506118bd81612900565b92915050565b6000815190506118d281612900565b92915050565b600082601f8301126118e957600080fd5b81356118f9848260208601611808565b91505092915050565b600082601f83011261191357600080fd5b8135611923848260208601611846565b91505092915050565b60008135905061193b81612917565b92915050565b60006020828403121561195357600080fd5b600061196184828501611884565b91505092915050565b6000806040838503121561197d57600080fd5b600061198b85828601611884565b925050602061199c85828601611884565b9150509250929050565b6000806000606084860312156119bb57600080fd5b60006119c986828701611884565b93505060206119da86828701611884565b92505060406119eb8682870161192c565b9150509250925092565b60008060008060808587031215611a0b57600080fd5b6000611a1987828801611884565b9450506020611a2a87828801611884565b9350506040611a3b8782880161192c565b925050606085013567ffffffffffffffff811115611a5857600080fd5b611a64878288016118d8565b91505092959194509250565b60008060408385031215611a8357600080fd5b6000611a9185828601611884565b9250506020611aa285828601611899565b9150509250929050565b600080600060608486031215611ac157600080fd5b6000611acf86828701611884565b935050602084013567ffffffffffffffff811115611aec57600080fd5b611af886828701611902565b925050604084013567ffffffffffffffff811115611b1557600080fd5b611b2186828701611902565b9150509250925092565b60008060408385031215611b3e57600080fd5b6000611b4c85828601611884565b9250506020611b5d8582860161192c565b9150509250929050565b600060208284031215611b7957600080fd5b6000611b87848285016118ae565b91505092915050565b600060208284031215611ba257600080fd5b6000611bb0848285016118c3565b91505092915050565b600060208284031215611bcb57600080fd5b6000611bd98482850161192c565b91505092915050565b611beb816126a3565b82525050565b611bfa816126b5565b82525050565b6000611c0b826125a5565b611c1581856125bb565b9350611c25818560208601612726565b611c2e816128c1565b840191505092915050565b6000611c44826125b0565b611c4e81856125cc565b9350611c5e818560208601612726565b611c67816128c1565b840191505092915050565b6000611c7d826125b0565b611c8781856125dd565b9350611c97818560208601612726565b80840191505092915050565b6000611cb06032836125cc565b91507f4552433732313a207472616e7366657220746f206e6f6e20455243373231526560008301527f63656976657220696d706c656d656e74657200000000000000000000000000006020830152604082019050919050565b6000611d16601c836125cc565b91507f4552433732313a20746f6b656e20616c7265616479206d696e746564000000006000830152602082019050919050565b6000611d566024836125cc565b91507f4552433732313a207472616e7366657220746f20746865207a65726f2061646460008301527f72657373000000000000000000000000000000000000000000000000000000006020830152604082019050919050565b6000611dbc6019836125cc565b91507f4552433732313a20617070726f766520746f2063616c6c6572000000000000006000830152602082019050919050565b6000611dfc602c836125cc565b91507f4552433732313a206f70657261746f7220717565727920666f72206e6f6e657860008301527f697374656e7420746f6b656e00000000000000000000000000000000000000006020830152604082019050919050565b6000611e626038836125cc565b91507f4552433732313a20617070726f76652063616c6c6572206973206e6f74206f7760008301527f6e6572206e6f7220617070726f76656420666f7220616c6c00000000000000006020830152604082019050919050565b6000611ec8602a836125cc565b91507f4552433732313a2062616c616e636520717565727920666f7220746865207a6560008301527f726f2061646472657373000000000000000000000000000000000000000000006020830152604082019050919050565b6000611f2e6029836125cc565b91507f4552433732313a206f776e657220717565727920666f72206e6f6e657869737460008301527f656e7420746f6b656e00000000000000000000000000000000000000000000006020830152604082019050919050565b6000611f946020836125cc565b91507f4552433732313a206d696e7420746f20746865207a65726f20616464726573736000830152602082019050919050565b6000611fd4602c836125cc565b91507f4552433732313a20617070726f76656420717565727920666f72206e6f6e657860008301527f697374656e7420746f6b656e00000000000000000000000000000000000000006020830152604082019050919050565b600061203a602c836125cc565b91507f4552433732314d657461646174613a2055524920736574206f66206e6f6e657860008301527f697374656e7420746f6b656e00000000000000000000000000000000000000006020830152604082019050919050565b60006120a06029836125cc565b91507f4552433732313a207472616e73666572206f6620746f6b656e2074686174206960008301527f73206e6f74206f776e00000000000000000000000000000000000000000000006020830152604082019050919050565b6000612106602f836125cc565b91507f4552433732314d657461646174613a2055524920717565727920666f72206e6f60008301527f6e6578697374656e7420746f6b656e00000000000000000000000000000000006020830152604082019050919050565b600061216c6021836125cc565b91507f4552433732313a20617070726f76616c20746f2063757272656e74206f776e6560008301527f72000000000000000000000000000000000000000000000000000000000000006020830152604082019050919050565b60006121d26031836125cc565b91507f4552433732313a207472616e736665722063616c6c6572206973206e6f74206f60008301527f776e6572206e6f7220617070726f7665640000000000000000000000000000006020830152604082019050919050565b6122348161270d565b82525050565b60006122468284611c72565b915081905092915050565b600061225d8285611c72565b91506122698284611c72565b91508190509392505050565b600060208201905061228a6000830184611be2565b92915050565b60006080820190506122a56000830187611be2565b6122b26020830186611be2565b6122bf604083018561222b565b81810360608301526122d18184611c00565b905095945050505050565b60006020820190506122f16000830184611bf1565b92915050565b600060208201905081810360008301526123118184611c39565b905092915050565b6000602082019050818103600083015261233281611ca3565b9050919050565b6000602082019050818103600083015261235281611d09565b9050919050565b6000602082019050818103600083015261237281611d49565b9050919050565b6000602082019050818103600083015261239281611daf565b9050919050565b600060208201905081810360008301526123b281611def565b9050919050565b600060208201905081810360008301526123d281611e55565b9050919050565b600060208201905081810360008301526123f281611ebb565b9050919050565b6000602082019050818103600083015261241281611f21565b9050919050565b6000602082019050818103600083015261243281611f87565b9050919050565b6000602082019050818103600083015261245281611fc7565b9050919050565b600060208201905081810360008301526124728161202d565b9050919050565b6000602082019050818103600083015261249281612093565b9050919050565b600060208201905081810360008301526124b2816120f9565b9050919050565b600060208201905081810360008301526124d28161215f565b9050919050565b600060208201905081810360008301526124f2816121c5565b9050919050565b600060208201905061250e600083018461222b565b92915050565b6000604051905081810181811067ffffffffffffffff8211171561253b5761253a612892565b5b8060405250919050565b600067ffffffffffffffff8211156125605761255f612892565b5b601f19601f8301169050602081019050919050565b600067ffffffffffffffff8211156125905761258f612892565b5b601f19601f8301169050602081019050919050565b600081519050919050565b600081519050919050565b600082825260208201905092915050565b600082825260208201905092915050565b600081905092915050565b60006125f38261270d565b91506125fe8361270d565b9250827fffffffffffffffffffffffffffffffffffffffffffffffffffffffffffffffff0382111561263357612632612805565b5b828201905092915050565b60006126498261270d565b91506126548361270d565b92508261266457612663612834565b5b828204905092915050565b600061267a8261270d565b91506126858361270d565b92508282101561269857612697612805565b5b828203905092915050565b60006126ae826126ed565b9050919050565b60008115159050919050565b60007fffffffff0000000000000000000000000000000000000000000000000000000082169050919050565b600073ffffffffffffffffffffffffffffffffffffffff82169050919050565b6000819050919050565b82818337600083830152505050565b60005b83811015612744578082015181840152602081019050612729565b83811115612753576000848401525b50505050565b6000600282049050600182168061277157607f821691505b6020821081141561278557612784612863565b5b50919050565b60006127968261270d565b91507fffffffffffffffffffffffffffffffffffffffffffffffffffffffffffffffff8214156127c9576127c8612805565b5b600182019050919050565b60006127df8261270d565b91506127ea8361270d565b9250826127fa576127f9612834565b5b828206905092915050565b7f4e487b7100000000000000000000000000000000000000000000000000000000600052601160045260246000fd5b7f4e487b7100000000000000000000000000000000000000000000000000000000600052601260045260246000fd5b7f4e487b7100000000000000000000000000000000000000000000000000000000600052602260045260246000fd5b7f4e487b7100000000000000000000000000000000000000000000000000000000600052604160045260246000fd5b6000601f19601f8301169050919050565b6128db816126a3565b81146128e657600080fd5b50565b6128f2816126b5565b81146128fd57600080fd5b50565b612909816126c1565b811461291457600080fd5b50565b6129208161270d565b811461292b57600080fd5b5056fea264697066735822122073789bc659f98fd0391ccac45c05c36a5f6ff53ef038c3cf7c34c38965cc460864736f6c63430008000033",
  "immutableReferences": {},
  "source": "pragma solidity ^0.8.0;\nimport \"@openzeppelin/contracts/token/ERC721/ERC721.sol\";\nimport \"@openzeppelin/contracts/token/ERC721/extensions/ERC721URIStorage.sol\";\nimport \"@openzeppelin/contracts/utils/Counters.sol\";\ncontract REToken is ERC721{\n    using Counters for Counters.Counter;\n        Counters.Counter private _tokenIds;\n        mapping(string => uint8) hashes;\n        mapping(uint256 => string) private _tokenURIs;\n        \n    constructor() public ERC721(\"RealEstateToken\", \"RET\") {}\n    \n    function _setTokenURI(uint256 tokenId, string memory _tokenURI) internal virtual {\n            require(_exists(tokenId), \"ERC721Metadata: URI set of nonexistent token\");\n            _tokenURIs[tokenId] = _tokenURI;\n        }\n\n    function awardItem(address recipient, string memory hash, string memory metadata)\n        public\n        returns (uint256)\n    {\n        require(hashes[hash] != 1);\n        hashes[hash] = 1;\n        _tokenIds.increment();\n        uint256 newItemId = _tokenIds.current();\n        _mint(recipient, newItemId);\n        _setTokenURI(newItemId, metadata);\n        return newItemId;\n    }\n}",
  "sourcePath": "/Users/kojak/Workspace/School/nftRealEstate2/contracts/REToken.sol",
  "compiler": {
    "name": "solc",
    "version": "0.8.0+commit.c7dfd78e.Emscripten.clang"
  },
  "schemaVersion": "3.3.4",
  "updatedAt": "2021-04-21T18:56:19.409Z",
  "devdoc": {
    "kind": "dev",
    "methods": {
      "approve(address,uint256)": {
        "details": "See {IERC721-approve}."
      },
      "balanceOf(address)": {
        "details": "See {IERC721-balanceOf}."
      },
      "getApproved(uint256)": {
        "details": "See {IERC721-getApproved}."
      },
      "isApprovedForAll(address,address)": {
        "details": "See {IERC721-isApprovedForAll}."
      },
      "name()": {
        "details": "See {IERC721Metadata-name}."
      },
      "ownerOf(uint256)": {
        "details": "See {IERC721-ownerOf}."
      },
      "safeTransferFrom(address,address,uint256)": {
        "details": "See {IERC721-safeTransferFrom}."
      },
      "safeTransferFrom(address,address,uint256,bytes)": {
        "details": "See {IERC721-safeTransferFrom}."
      },
      "setApprovalForAll(address,bool)": {
        "details": "See {IERC721-setApprovalForAll}."
      },
      "supportsInterface(bytes4)": {
        "details": "See {IERC165-supportsInterface}."
      },
      "symbol()": {
        "details": "See {IERC721Metadata-symbol}."
      },
      "tokenURI(uint256)": {
        "details": "See {IERC721Metadata-tokenURI}."
      },
      "transferFrom(address,address,uint256)": {
        "details": "See {IERC721-transferFrom}."
      }
    },
    "version": 1
  },
  "userdoc": {
    "kind": "user",
    "methods": {},
    "version": 1
  }
}