{
  "contractName": "REToken",
  "abi": [
    {
      "inputs": [],
      "stateMutability": "nonpayable",
      "type": "constructor"
    },
    {
      "anonymous": false,
      "inputs": [
        {
          "indexed": true,
          "internalType": "address",
          "name": "owner",
          "type": "address"
        },
        {
          "indexed": true,
          "internalType": "address",
          "name": "approved",
          "type": "address"
        },
        {
          "indexed": true,
          "internalType": "uint256",
          "name": "tokenId",
          "type": "uint256"
        }
      ],
      "name": "Approval",
      "type": "event"
    },
    {
      "anonymous": false,
      "inputs": [
        {
          "indexed": true,
          "internalType": "address",
          "name": "owner",
          "type": "address"
        },
        {
          "indexed": true,
          "internalType": "address",
          "name": "operator",
          "type": "address"
        },
        {
          "indexed": false,
          "internalType": "bool",
          "name": "approved",
          "type": "bool"
        }
      ],
      "name": "ApprovalForAll",
      "type": "event"
    },
    {
      "anonymous": false,
      "inputs": [
        {
          "indexed": true,
          "internalType": "address",
          "name": "from",
          "type": "address"
        },
        {
          "indexed": true,
          "internalType": "address",
          "name": "to",
          "type": "address"
        },
        {
          "indexed": true,
          "internalType": "uint256",
          "name": "tokenId",
          "type": "uint256"
        }
      ],
      "name": "Transfer",
      "type": "event"
    },
    {
      "inputs": [
        {
          "internalType": "address",
          "name": "to",
          "type": "address"
        },
        {
          "internalType": "uint256",
          "name": "tokenId",
          "type": "uint256"
        }
      ],
      "name": "approve",
      "outputs": [],
      "stateMutability": "nonpayable",
      "type": "function"
    },
    {
      "inputs": [
        {
          "internalType": "address",
          "name": "owner",
          "type": "address"
        }
      ],
      "name": "balanceOf",
      "outputs": [
        {
          "internalType": "uint256",
          "name": "",
          "type": "uint256"
        }
      ],
      "stateMutability": "view",
      "type": "function",
      "constant": true
    },
    {
      "inputs": [
        {
          "internalType": "uint256",
          "name": "tokenId",
          "type": "uint256"
        }
      ],
      "name": "getApproved",
      "outputs": [
        {
          "internalType": "address",
          "name": "",
          "type": "address"
        }
      ],
      "stateMutability": "view",
      "type": "function",
      "constant": true
    },
    {
      "inputs": [
        {
          "internalType": "address",
          "name": "owner",
          "type": "address"
        },
        {
          "internalType": "address",
          "name": "operator",
          "type": "address"
        }
      ],
      "name": "isApprovedForAll",
      "outputs": [
        {
          "internalType": "bool",
          "name": "",
          "type": "bool"
        }
      ],
      "stateMutability": "view",
      "type": "function",
      "constant": true
    },
    {
      "inputs": [],
      "name": "name",
      "outputs": [
        {
          "internalType": "string",
          "name": "",
          "type": "string"
        }
      ],
      "stateMutability": "view",
      "type": "function",
      "constant": true
    },
    {
      "inputs": [
        {
          "internalType": "uint256",
          "name": "tokenId",
          "type": "uint256"
        }
      ],
      "name": "ownerOf",
      "outputs": [
        {
          "internalType": "address",
          "name": "",
          "type": "address"
        }
      ],
      "stateMutability": "view",
      "type": "function",
      "constant": true
    },
    {
      "inputs": [
        {
          "internalType": "address",
          "name": "from",
          "type": "address"
        },
        {
          "internalType": "address",
          "name": "to",
          "type": "address"
        },
        {
          "internalType": "uint256",
          "name": "tokenId",
          "type": "uint256"
        }
      ],
      "name": "safeTransferFrom",
      "outputs": [],
      "stateMutability": "nonpayable",
      "type": "function"
    },
    {
      "inputs": [
        {
          "internalType": "address",
          "name": "from",
          "type": "address"
        },
        {
          "internalType": "address",
          "name": "to",
          "type": "address"
        },
        {
          "internalType": "uint256",
          "name": "tokenId",
          "type": "uint256"
        },
        {
          "internalType": "bytes",
          "name": "_data",
          "type": "bytes"
        }
      ],
      "name": "safeTransferFrom",
      "outputs": [],
      "stateMutability": "nonpayable",
      "type": "function"
    },
    {
      "inputs": [
        {
          "internalType": "address",
          "name": "operator",
          "type": "address"
        },
        {
          "internalType": "bool",
          "name": "approved",
          "type": "bool"
        }
      ],
      "name": "setApprovalForAll",
      "outputs": [],
      "stateMutability": "nonpayable",
      "type": "function"
    },
    {
      "inputs": [
        {
          "internalType": "bytes4",
          "name": "interfaceId",
          "type": "bytes4"
        }
      ],
      "name": "supportsInterface",
      "outputs": [
        {
          "internalType": "bool",
          "name": "",
          "type": "bool"
        }
      ],
      "stateMutability": "view",
      "type": "function",
      "constant": true
    },
    {
      "inputs": [],
      "name": "symbol",
      "outputs": [
        {
          "internalType": "string",
          "name": "",
          "type": "string"
        }
      ],
      "stateMutability": "view",
      "type": "function",
      "constant": true
    },
    {
      "inputs": [
        {
          "internalType": "uint256",
          "name": "tokenId",
          "type": "uint256"
        }
      ],
      "name": "tokenURI",
      "outputs": [
        {
          "internalType": "string",
          "name": "",
          "type": "string"
        }
      ],
      "stateMutability": "view",
      "type": "function",
      "constant": true
    },
    {
      "inputs": [
        {
          "internalType": "address",
          "name": "from",
          "type": "address"
        },
        {
          "internalType": "address",
          "name": "to",
          "type": "address"
        },
        {
          "internalType": "uint256",
          "name": "tokenId",
          "type": "uint256"
        }
      ],
      "name": "transferFrom",
      "outputs": [],
      "stateMutability": "nonpayable",
      "type": "function"
    },
    {
      "inputs": [
        {
          "internalType": "address",
          "name": "recipient",
          "type": "address"
        },
        {
          "internalType": "string",
          "name": "hash",
          "type": "string"
        },
        {
          "internalType": "string",
          "name": "metadata",
          "type": "string"
        }
      ],
      "name": "awardItem",
      "outputs": [
        {
          "internalType": "uint256",
          "name": "",
          "type": "uint256"
        }
      ],
      "stateMutability": "nonpayable",
      "type": "function"
    }
  ],
  "bytecode": "0x60806040523480156200001157600080fd5b506040518060400160405280600f81526020017f5265616c457374617465546f6b656e00000000000000000000000000000000008152506040518060400160405280600381526020017f5245540000000000000000000000000000000000000000000000000000000000815250816000908051906020019062000096929190620000b8565b508060019080519060200190620000af929190620000b8565b505050620001cd565b828054620000c69062000168565b90600052602060002090601f016020900481019282620000ea576000855562000136565b82601f106200010557805160ff191683800117855562000136565b8280016001018555821562000136579182015b828111156200013557825182559160200191906001019062000118565b5b50905062000145919062000149565b5090565b5b80821115620001645760008160009055506001016200014a565b5090565b600060028204905060018216806200018157607f821691505b602082108114156200019857620001976200019e565b5b50919050565b7f4e487b7100000000000000000000000000000000000000000000000000000000600052602260045260246000fd5b612a3f80620001dd6000396000f3fe608060405234801561001057600080fd5b50600436106100ea5760003560e01c806370a082311161008c578063a22cb46511610066578063a22cb4651461026f578063b88d4fde1461028b578063c87b56dd146102a7578063e985e9c5146102d7576100ea565b806370a08231146101f15780638bfaf1011461022157806395d89b4114610251576100ea565b8063095ea7b3116100c8578063095ea7b31461016d57806323b872dd1461018957806342842e0e146101a55780636352211e146101c1576100ea565b806301ffc9a7146100ef57806306fdde031461011f578063081812fc1461013d575b600080fd5b61010960048036038101906101049190611b67565b610307565b6040516101169190611f61565b60405180910390f35b6101276103e9565b6040516101349190611f7c565b60405180910390f35b61015760048036038101906101529190611bb9565b61047b565b6040516101649190611efa565b60405180910390f35b61018760048036038101906101829190611b2b565b610500565b005b6101a3600480360381019061019e91906119a6565b610618565b005b6101bf60048036038101906101ba91906119a6565b610678565b005b6101db60048036038101906101d69190611bb9565b610698565b6040516101e89190611efa565b60405180910390f35b61020b60048036038101906102069190611941565b61074a565b604051610218919061217e565b60405180910390f35b61023b60048036038101906102369190611aac565b610802565b604051610248919061217e565b60405180910390f35b6102596108af565b6040516102669190611f7c565b60405180910390f35b61028960048036038101906102849190611a70565b610941565b005b6102a560048036038101906102a091906119f5565b610ac2565b005b6102c160048036038101906102bc9190611bb9565b610b24565b6040516102ce9190611f7c565b60405180910390f35b6102f160048036038101906102ec919061196a565b610bcb565b6040516102fe9190611f61565b60405180910390f35b60007f80ac58cd000000000000000000000000000000000000000000000000000000007bffffffffffffffffffffffffffffffffffffffffffffffffffffffff1916827bffffffffffffffffffffffffffffffffffffffffffffffffffffffff191614806103d257507f5b5e139f000000000000000000000000000000000000000000000000000000007bffffffffffffffffffffffffffffffffffffffffffffffffffffffff1916827bffffffffffffffffffffffffffffffffffffffffffffffffffffffff1916145b806103e257506103e182610c5f565b5b9050919050565b6060600080546103f8906123d4565b80601f0160208091040260200160405190810160405280929190818152602001828054610424906123d4565b80156104715780601f1061044657610100808354040283529160200191610471565b820191906000526020600020905b81548152906001019060200180831161045457829003601f168201915b5050505050905090565b600061048682610cc9565b6104c5576040517f08c379a00000000000000000000000000000000000000000000000000000000081526004016104bc906120be565b60405180910390fd5b6004600083815260200190815260200160002060009054906101000a900473ffffffffffffffffffffffffffffffffffffffff169050919050565b600061050b82610698565b90508073ffffffffffffffffffffffffffffffffffffffff168373ffffffffffffffffffffffffffffffffffffffff16141561057c576040517f08c379a00000000000000000000000000000000000000000000000000000000081526004016105739061213e565b60405180910390fd5b8073ffffffffffffffffffffffffffffffffffffffff1661059b610d35565b73ffffffffffffffffffffffffffffffffffffffff1614806105ca57506105c9816105c4610d35565b610bcb565b5b610609576040517f08c379a00000000000000000000000000000000000000000000000000000000081526004016106009061203e565b60405180910390fd5b6106138383610d3d565b505050565b610629610623610d35565b82610df6565b610668576040517f08c379a000000000000000000000000000000000000000000000000000000000815260040161065f9061215e565b60405180910390fd5b610673838383610ed4565b505050565b61069383838360405180602001604052806000815250610ac2565b505050565b6000806002600084815260200190815260200160002060009054906101000a900473ffffffffffffffffffffffffffffffffffffffff169050600073ffffffffffffffffffffffffffffffffffffffff168173ffffffffffffffffffffffffffffffffffffffff161415610741576040517f08c379a00000000000000000000000000000000000000000000000000000000081526004016107389061207e565b60405180910390fd5b80915050919050565b60008073ffffffffffffffffffffffffffffffffffffffff168273ffffffffffffffffffffffffffffffffffffffff1614156107bb576040517f08c379a00000000000000000000000000000000000000000000000000000000081526004016107b29061205e565b60405180910390fd5b600360008373ffffffffffffffffffffffffffffffffffffffff1673ffffffffffffffffffffffffffffffffffffffff168152602001908152602001600020549050919050565b600060016007846040516108169190611ebf565b908152602001604051809103902060009054906101000a900460ff1660ff16141561084057600080fd5b60016007846040516108529190611ebf565b908152602001604051809103902060006101000a81548160ff021916908360ff1602179055506108826006611130565b600061088e6006611146565b905061089a8582611154565b6108a48184611322565b809150509392505050565b6060600180546108be906123d4565b80601f01602080910402602001604051908101604052809291908181526020018280546108ea906123d4565b80156109375780601f1061090c57610100808354040283529160200191610937565b820191906000526020600020905b81548152906001019060200180831161091a57829003601f168201915b5050505050905090565b610949610d35565b73ffffffffffffffffffffffffffffffffffffffff168273ffffffffffffffffffffffffffffffffffffffff1614156109b7576040517f08c379a00000000000000000000000000000000000000000000000000000000081526004016109ae90611ffe565b60405180910390fd5b80600560006109c4610d35565b73ffffffffffffffffffffffffffffffffffffffff1673ffffffffffffffffffffffffffffffffffffffff16815260200190815260200160002060008473ffffffffffffffffffffffffffffffffffffffff1673ffffffffffffffffffffffffffffffffffffffff16815260200190815260200160002060006101000a81548160ff0219169083151502179055508173ffffffffffffffffffffffffffffffffffffffff16610a71610d35565b73ffffffffffffffffffffffffffffffffffffffff167f17307eab39ab6107e8899845ad3d59bd9653f200f220920489ca2b5937696c3183604051610ab69190611f61565b60405180910390a35050565b610ad3610acd610d35565b83610df6565b610b12576040517f08c379a0000000000000000000000000000000000000000000000000000000008152600401610b099061215e565b60405180910390fd5b610b1e84848484611396565b50505050565b6060610b2f82610cc9565b610b6e576040517f08c379a0000000000000000000000000000000000000000000000000000000008152600401610b659061211e565b60405180910390fd5b6000610b786113f2565b90506000815111610b985760405180602001604052806000815250610bc3565b80610ba284611409565b604051602001610bb3929190611ed6565b6040516020818303038152906040525b915050919050565b6000600560008473ffffffffffffffffffffffffffffffffffffffff1673ffffffffffffffffffffffffffffffffffffffff16815260200190815260200160002060008373ffffffffffffffffffffffffffffffffffffffff1673ffffffffffffffffffffffffffffffffffffffff16815260200190815260200160002060009054906101000a900460ff16905092915050565b60007f01ffc9a7000000000000000000000000000000000000000000000000000000007bffffffffffffffffffffffffffffffffffffffffffffffffffffffff1916827bffffffffffffffffffffffffffffffffffffffffffffffffffffffff1916149050919050565b60008073ffffffffffffffffffffffffffffffffffffffff166002600084815260200190815260200160002060009054906101000a900473ffffffffffffffffffffffffffffffffffffffff1673ffffffffffffffffffffffffffffffffffffffff1614159050919050565b600033905090565b816004600083815260200190815260200160002060006101000a81548173ffffffffffffffffffffffffffffffffffffffff021916908373ffffffffffffffffffffffffffffffffffffffff160217905550808273ffffffffffffffffffffffffffffffffffffffff16610db083610698565b73ffffffffffffffffffffffffffffffffffffffff167f8c5be1e5ebec7d5bd14f71427d1e84f3dd0314c0f7b2291e5b200ac8c7c3b92560405160405180910390a45050565b6000610e0182610cc9565b610e40576040517f08c379a0000000000000000000000000000000000000000000000000000000008152600401610e379061201e565b60405180910390fd5b6000610e4b83610698565b90508073ffffffffffffffffffffffffffffffffffffffff168473ffffffffffffffffffffffffffffffffffffffff161480610eba57508373ffffffffffffffffffffffffffffffffffffffff16610ea28461047b565b73ffffffffffffffffffffffffffffffffffffffff16145b80610ecb5750610eca8185610bcb565b5b91505092915050565b8273ffffffffffffffffffffffffffffffffffffffff16610ef482610698565b73ffffffffffffffffffffffffffffffffffffffff1614610f4a576040517f08c379a0000000000000000000000000000000000000000000000000000000008152600401610f41906120fe565b60405180910390fd5b600073ffffffffffffffffffffffffffffffffffffffff168273ffffffffffffffffffffffffffffffffffffffff161415610fba576040517f08c379a0000000000000000000000000000000000000000000000000000000008152600401610fb190611fde565b60405180910390fd5b610fc58383836115b6565b610fd0600082610d3d565b6001600360008573ffffffffffffffffffffffffffffffffffffffff1673ffffffffffffffffffffffffffffffffffffffff168152602001908152602001600020600082825461102091906122ea565b925050819055506001600360008473ffffffffffffffffffffffffffffffffffffffff1673ffffffffffffffffffffffffffffffffffffffff16815260200190815260200160002060008282546110779190612263565b92505081905550816002600083815260200190815260200160002060006101000a81548173ffffffffffffffffffffffffffffffffffffffff021916908373ffffffffffffffffffffffffffffffffffffffff160217905550808273ffffffffffffffffffffffffffffffffffffffff168473ffffffffffffffffffffffffffffffffffffffff167fddf252ad1be2c89b69c2b068fc378daa952ba7f163c4a11628f55a4df523b3ef60405160405180910390a4505050565b6001816000016000828254019250508190555050565b600081600001549050919050565b600073ffffffffffffffffffffffffffffffffffffffff168273ffffffffffffffffffffffffffffffffffffffff1614156111c4576040517f08c379a00000000000000000000000000000000000000000000000000000000081526004016111bb9061209e565b60405180910390fd5b6111cd81610cc9565b1561120d576040517f08c379a000000000000000000000000000000000000000000000000000000000815260040161120490611fbe565b60405180910390fd5b611219600083836115b6565b6001600360008473ffffffffffffffffffffffffffffffffffffffff1673ffffffffffffffffffffffffffffffffffffffff16815260200190815260200160002060008282546112699190612263565b92505081905550816002600083815260200190815260200160002060006101000a81548173ffffffffffffffffffffffffffffffffffffffff021916908373ffffffffffffffffffffffffffffffffffffffff160217905550808273ffffffffffffffffffffffffffffffffffffffff16600073ffffffffffffffffffffffffffffffffffffffff167fddf252ad1be2c89b69c2b068fc378daa952ba7f163c4a11628f55a4df523b3ef60405160405180910390a45050565b61132b82610cc9565b61136a576040517f08c379a0000000000000000000000000000000000000000000000000000000008152600401611361906120de565b60405180910390fd5b80600860008481526020019081526020016000209080519060200190611391929190611765565b505050565b6113a1848484610ed4565b6113ad848484846115bb565b6113ec576040517f08c379a00000000000000000000000000000000000000000000000000000000081526004016113e390611f9e565b60405180910390fd5b50505050565b606060405180602001604052806000815250905090565b60606000821415611451576040518060400160405280600181526020017f300000000000000000000000000000000000000000000000000000000000000081525090506115b1565b600082905060005b6000821461148357808061146c90612437565b915050600a8261147c91906122b9565b9150611459565b60008167ffffffffffffffff8111156114c5577f4e487b7100000000000000000000000000000000000000000000000000000000600052604160045260246000fd5b6040519080825280601f01601f1916602001820160405280156114f75781602001600182028036833780820191505090505b5090505b600085146115aa5760018261151091906122ea565b9150600a8561151f9190612480565b603061152b9190612263565b60f81b818381518110611567577f4e487b7100000000000000000000000000000000000000000000000000000000600052603260045260246000fd5b60200101907effffffffffffffffffffffffffffffffffffffffffffffffffffffffffffff1916908160001a905350600a856115a391906122b9565b94506114fb565b8093505050505b919050565b505050565b60006115dc8473ffffffffffffffffffffffffffffffffffffffff16611752565b15611745578373ffffffffffffffffffffffffffffffffffffffff1663150b7a02611605610d35565b8786866040518563ffffffff1660e01b81526004016116279493929190611f15565b602060405180830381600087803b15801561164157600080fd5b505af192505050801561167257506040513d601f19601f8201168201806040525081019061166f9190611b90565b60015b6116f5573d80600081146116a2576040519150601f19603f3d011682016040523d82523d6000602084013e6116a7565b606091505b506000815114156116ed576040517f08c379a00000000000000000000000000000000000000000000000000000000081526004016116e490611f9e565b60405180910390fd5b805181602001fd5b63150b7a0260e01b7bffffffffffffffffffffffffffffffffffffffffffffffffffffffff1916817bffffffffffffffffffffffffffffffffffffffffffffffffffffffff19161491505061174a565b600190505b949350505050565b600080823b905060008111915050919050565b828054611771906123d4565b90600052602060002090601f01602090048101928261179357600085556117da565b82601f106117ac57805160ff19168380011785556117da565b828001600101855582156117da579182015b828111156117d95782518255916020019190600101906117be565b5b5090506117e791906117eb565b5090565b5b808211156118045760008160009055506001016117ec565b5090565b600061181b611816846121be565b612199565b90508281526020810184848401111561183357600080fd5b61183e848285612392565b509392505050565b6000611859611854846121ef565b612199565b90508281526020810184848401111561187157600080fd5b61187c848285612392565b509392505050565b600081359050611893816129ad565b92915050565b6000813590506118a8816129c4565b92915050565b6000813590506118bd816129db565b92915050565b6000815190506118d2816129db565b92915050565b600082601f8301126118e957600080fd5b81356118f9848260208601611808565b91505092915050565b600082601f83011261191357600080fd5b8135611923848260208601611846565b91505092915050565b60008135905061193b816129f2565b92915050565b60006020828403121561195357600080fd5b600061196184828501611884565b91505092915050565b6000806040838503121561197d57600080fd5b600061198b85828601611884565b925050602061199c85828601611884565b9150509250929050565b6000806000606084860312156119bb57600080fd5b60006119c986828701611884565b93505060206119da86828701611884565b92505060406119eb8682870161192c565b9150509250925092565b60008060008060808587031215611a0b57600080fd5b6000611a1987828801611884565b9450506020611a2a87828801611884565b9350506040611a3b8782880161192c565b925050606085013567ffffffffffffffff811115611a5857600080fd5b611a64878288016118d8565b91505092959194509250565b60008060408385031215611a8357600080fd5b6000611a9185828601611884565b9250506020611aa285828601611899565b9150509250929050565b600080600060608486031215611ac157600080fd5b6000611acf86828701611884565b935050602084013567ffffffffffffffff811115611aec57600080fd5b611af886828701611902565b925050604084013567ffffffffffffffff811115611b1557600080fd5b611b2186828701611902565b9150509250925092565b60008060408385031215611b3e57600080fd5b6000611b4c85828601611884565b9250506020611b5d8582860161192c565b9150509250929050565b600060208284031215611b7957600080fd5b6000611b87848285016118ae565b91505092915050565b600060208284031215611ba257600080fd5b6000611bb0848285016118c3565b91505092915050565b600060208284031215611bcb57600080fd5b6000611bd98482850161192c565b91505092915050565b611beb8161231e565b82525050565b611bfa81612330565b82525050565b6000611c0b82612220565b611c158185612236565b9350611c258185602086016123a1565b611c2e8161256d565b840191505092915050565b6000611c448261222b565b611c4e8185612247565b9350611c5e8185602086016123a1565b611c678161256d565b840191505092915050565b6000611c7d8261222b565b611c878185612258565b9350611c978185602086016123a1565b80840191505092915050565b6000611cb0603283612247565b9150611cbb8261257e565b604082019050919050565b6000611cd3601c83612247565b9150611cde826125cd565b602082019050919050565b6000611cf6602483612247565b9150611d01826125f6565b604082019050919050565b6000611d19601983612247565b9150611d2482612645565b602082019050919050565b6000611d3c602c83612247565b9150611d478261266e565b604082019050919050565b6000611d5f603883612247565b9150611d6a826126bd565b604082019050919050565b6000611d82602a83612247565b9150611d8d8261270c565b604082019050919050565b6000611da5602983612247565b9150611db08261275b565b604082019050919050565b6000611dc8602083612247565b9150611dd3826127aa565b602082019050919050565b6000611deb602c83612247565b9150611df6826127d3565b604082019050919050565b6000611e0e602c83612247565b9150611e1982612822565b604082019050919050565b6000611e31602983612247565b9150611e3c82612871565b604082019050919050565b6000611e54602f83612247565b9150611e5f826128c0565b604082019050919050565b6000611e77602183612247565b9150611e828261290f565b604082019050919050565b6000611e9a603183612247565b9150611ea58261295e565b604082019050919050565b611eb981612388565b82525050565b6000611ecb8284611c72565b915081905092915050565b6000611ee28285611c72565b9150611eee8284611c72565b91508190509392505050565b6000602082019050611f0f6000830184611be2565b92915050565b6000608082019050611f2a6000830187611be2565b611f376020830186611be2565b611f446040830185611eb0565b8181036060830152611f568184611c00565b905095945050505050565b6000602082019050611f766000830184611bf1565b92915050565b60006020820190508181036000830152611f968184611c39565b905092915050565b60006020820190508181036000830152611fb781611ca3565b9050919050565b60006020820190508181036000830152611fd781611cc6565b9050919050565b60006020820190508181036000830152611ff781611ce9565b9050919050565b6000602082019050818103600083015261201781611d0c565b9050919050565b6000602082019050818103600083015261203781611d2f565b9050919050565b6000602082019050818103600083015261205781611d52565b9050919050565b6000602082019050818103600083015261207781611d75565b9050919050565b6000602082019050818103600083015261209781611d98565b9050919050565b600060208201905081810360008301526120b781611dbb565b9050919050565b600060208201905081810360008301526120d781611dde565b9050919050565b600060208201905081810360008301526120f781611e01565b9050919050565b6000602082019050818103600083015261211781611e24565b9050919050565b6000602082019050818103600083015261213781611e47565b9050919050565b6000602082019050818103600083015261215781611e6a565b9050919050565b6000602082019050818103600083015261217781611e8d565b9050919050565b60006020820190506121936000830184611eb0565b92915050565b60006121a36121b4565b90506121af8282612406565b919050565b6000604051905090565b600067ffffffffffffffff8211156121d9576121d861253e565b5b6121e28261256d565b9050602081019050919050565b600067ffffffffffffffff82111561220a5761220961253e565b5b6122138261256d565b9050602081019050919050565b600081519050919050565b600081519050919050565b600082825260208201905092915050565b600082825260208201905092915050565b600081905092915050565b600061226e82612388565b915061227983612388565b9250827fffffffffffffffffffffffffffffffffffffffffffffffffffffffffffffffff038211156122ae576122ad6124b1565b5b828201905092915050565b60006122c482612388565b91506122cf83612388565b9250826122df576122de6124e0565b5b828204905092915050565b60006122f582612388565b915061230083612388565b925082821015612313576123126124b1565b5b828203905092915050565b600061232982612368565b9050919050565b60008115159050919050565b60007fffffffff0000000000000000000000000000000000000000000000000000000082169050919050565b600073ffffffffffffffffffffffffffffffffffffffff82169050919050565b6000819050919050565b82818337600083830152505050565b60005b838110156123bf5780820151818401526020810190506123a4565b838111156123ce576000848401525b50505050565b600060028204905060018216806123ec57607f821691505b60208210811415612400576123ff61250f565b5b50919050565b61240f8261256d565b810181811067ffffffffffffffff8211171561242e5761242d61253e565b5b80604052505050565b600061244282612388565b91507fffffffffffffffffffffffffffffffffffffffffffffffffffffffffffffffff821415612475576124746124b1565b5b600182019050919050565b600061248b82612388565b915061249683612388565b9250826124a6576124a56124e0565b5b828206905092915050565b7f4e487b7100000000000000000000000000000000000000000000000000000000600052601160045260246000fd5b7f4e487b7100000000000000000000000000000000000000000000000000000000600052601260045260246000fd5b7f4e487b7100000000000000000000000000000000000000000000000000000000600052602260045260246000fd5b7f4e487b7100000000000000000000000000000000000000000000000000000000600052604160045260246000fd5b6000601f19601f8301169050919050565b7f4552433732313a207472616e7366657220746f206e6f6e20455243373231526560008201527f63656976657220696d706c656d656e7465720000000000000000000000000000602082015250565b7f4552433732313a20746f6b656e20616c7265616479206d696e74656400000000600082015250565b7f4552433732313a207472616e7366657220746f20746865207a65726f2061646460008201527f7265737300000000000000000000000000000000000000000000000000000000602082015250565b7f4552433732313a20617070726f766520746f2063616c6c657200000000000000600082015250565b7f4552433732313a206f70657261746f7220717565727920666f72206e6f6e657860008201527f697374656e7420746f6b656e0000000000000000000000000000000000000000602082015250565b7f4552433732313a20617070726f76652063616c6c6572206973206e6f74206f7760008201527f6e6572206e6f7220617070726f76656420666f7220616c6c0000000000000000602082015250565b7f4552433732313a2062616c616e636520717565727920666f7220746865207a6560008201527f726f206164647265737300000000000000000000000000000000000000000000602082015250565b7f4552433732313a206f776e657220717565727920666f72206e6f6e657869737460008201527f656e7420746f6b656e0000000000000000000000000000000000000000000000602082015250565b7f4552433732313a206d696e7420746f20746865207a65726f2061646472657373600082015250565b7f4552433732313a20617070726f76656420717565727920666f72206e6f6e657860008201527f697374656e7420746f6b656e0000000000000000000000000000000000000000602082015250565b7f4552433732314d657461646174613a2055524920736574206f66206e6f6e657860008201527f697374656e7420746f6b656e0000000000000000000000000000000000000000602082015250565b7f4552433732313a207472616e73666572206f6620746f6b656e2074686174206960008201527f73206e6f74206f776e0000000000000000000000000000000000000000000000602082015250565b7f4552433732314d657461646174613a2055524920717565727920666f72206e6f60008201527f6e6578697374656e7420746f6b656e0000000000000000000000000000000000602082015250565b7f4552433732313a20617070726f76616c20746f2063757272656e74206f776e6560008201527f7200000000000000000000000000000000000000000000000000000000000000602082015250565b7f4552433732313a207472616e736665722063616c6c6572206973206e6f74206f60008201527f776e6572206e6f7220617070726f766564000000000000000000000000000000602082015250565b6129b68161231e565b81146129c157600080fd5b50565b6129cd81612330565b81146129d857600080fd5b50565b6129e48161233c565b81146129ef57600080fd5b50565b6129fb81612388565b8114612a0657600080fd5b5056fea26469706673582212207c4003cfdc13ed29badad208ecac444a1fd58512ddc9c660062eff4b8af7089964736f6c63430008040033",
  "immutableReferences": {},
  "source": "pragma solidity ^0.8.0;\nimport \"@openzeppelin/contracts/token/ERC721/ERC721.sol\";\nimport \"@openzeppelin/contracts/token/ERC721/extensions/ERC721URIStorage.sol\";\nimport \"@openzeppelin/contracts/utils/Counters.sol\";\ncontract REToken is ERC721{\n    using Counters for Counters.Counter;\n        Counters.Counter private _tokenIds;\n        mapping(string => uint8) hashes;\n        mapping(uint256 => string) private _tokenURIs;\n        \n    constructor() ERC721(\"RealEstateToken\", \"RET\") public {}\n    \n    function _setTokenURI(uint256 tokenId, string memory _tokenURI) internal virtual {\n            require(_exists(tokenId), \"ERC721Metadata: URI set of nonexistent token\");\n            _tokenURIs[tokenId] = _tokenURI;\n        }\n\n    function awardItem(address recipient, string memory hash, string memory metadata) public returns (uint256)\n    {\n        require(hashes[hash] != 1);\n        hashes[hash] = 1;\n        _tokenIds.increment();\n        uint256 newItemId = _tokenIds.current();\n        _mint(recipient, newItemId);\n        _setTokenURI(newItemId, metadata);\n        return newItemId;\n    }\n}",
  "sourcePath": "/Users/kojak/Workspace/School/nftRealEstate2/contracts/REToken.sol",
  "compiler": {
    "name": "solc",
    "version": "0.8.4+commit.c7e474f2.Emscripten.clang"
  },
  "schemaVersion": "3.3.4",
  "updatedAt": "2021-04-22T14:41:32.338Z",
  "networkType": "ethereum",
  "devdoc": {
    "kind": "dev",
    "methods": {
      "approve(address,uint256)": {
        "details": "See {IERC721-approve}."
      },
      "balanceOf(address)": {
        "details": "See {IERC721-balanceOf}."
      },
      "getApproved(uint256)": {
        "details": "See {IERC721-getApproved}."
      },
      "isApprovedForAll(address,address)": {
        "details": "See {IERC721-isApprovedForAll}."
      },
      "name()": {
        "details": "See {IERC721Metadata-name}."
      },
      "ownerOf(uint256)": {
        "details": "See {IERC721-ownerOf}."
      },
      "safeTransferFrom(address,address,uint256)": {
        "details": "See {IERC721-safeTransferFrom}."
      },
      "safeTransferFrom(address,address,uint256,bytes)": {
        "details": "See {IERC721-safeTransferFrom}."
      },
      "setApprovalForAll(address,bool)": {
        "details": "See {IERC721-setApprovalForAll}."
      },
      "supportsInterface(bytes4)": {
        "details": "See {IERC165-supportsInterface}."
      },
      "symbol()": {
        "details": "See {IERC721Metadata-symbol}."
      },
      "tokenURI(uint256)": {
        "details": "See {IERC721Metadata-tokenURI}."
      },
      "transferFrom(address,address,uint256)": {
        "details": "See {IERC721-transferFrom}."
      }
    },
    "version": 1
  },
  "userdoc": {
    "kind": "user",
    "methods": {},
    "version": 1
  }
}